{
    "contractName": "BaseV1Voter",
    "abi": [
        {
            "inputs": [
                {
                    "internalType": "address",
                    "name": "__ve",
                    "type": "address"
                },
                {
                    "internalType": "address",
                    "name": "_factory",
                    "type": "address"
                },
                {
                    "internalType": "address",
                    "name": "_gauges",
                    "type": "address"
                },
                {
                    "internalType": "address",
                    "name": "_bribes",
                    "type": "address"
                }
            ],
            "stateMutability": "nonpayable",
            "type": "constructor"
        },
        {
            "anonymous": false,
            "inputs": [
                {
                    "indexed": false,
                    "internalType": "uint256",
                    "name": "tokenId",
                    "type": "uint256"
                },
                {
                    "indexed": false,
                    "internalType": "int256",
                    "name": "weight",
                    "type": "int256"
                }
            ],
            "name": "Abstained",
            "type": "event"
        },
        {
            "anonymous": false,
            "inputs": [
                {
                    "indexed": true,
                    "internalType": "address",
                    "name": "owner",
                    "type": "address"
                },
                {
                    "indexed": true,
                    "internalType": "address",
                    "name": "gauge",
                    "type": "address"
                },
                {
                    "indexed": false,
                    "internalType": "uint256",
                    "name": "tokenId",
                    "type": "uint256"
                }
            ],
            "name": "Attach",
            "type": "event"
        },
        {
            "anonymous": false,
            "inputs": [
                {
                    "indexed": true,
                    "internalType": "address",
                    "name": "lp",
                    "type": "address"
                },
                {
                    "indexed": true,
                    "internalType": "address",
                    "name": "gauge",
                    "type": "address"
                },
                {
                    "indexed": false,
                    "internalType": "uint256",
                    "name": "tokenId",
                    "type": "uint256"
                },
                {
                    "indexed": false,
                    "internalType": "uint256",
                    "name": "amount",
                    "type": "uint256"
                }
            ],
            "name": "Deposit",
            "type": "event"
        },
        {
            "anonymous": false,
            "inputs": [
                {
                    "indexed": true,
                    "internalType": "address",
                    "name": "owner",
                    "type": "address"
                },
                {
                    "indexed": true,
                    "internalType": "address",
                    "name": "gauge",
                    "type": "address"
                },
                {
                    "indexed": false,
                    "internalType": "uint256",
                    "name": "tokenId",
                    "type": "uint256"
                }
            ],
            "name": "Detach",
            "type": "event"
        },
        {
            "anonymous": false,
            "inputs": [
                {
                    "indexed": true,
                    "internalType": "address",
                    "name": "sender",
                    "type": "address"
                },
                {
                    "indexed": true,
                    "internalType": "address",
                    "name": "gauge",
                    "type": "address"
                },
                {
                    "indexed": false,
                    "internalType": "uint256",
                    "name": "amount",
                    "type": "uint256"
                }
            ],
            "name": "DistributeReward",
            "type": "event"
        },
        {
            "anonymous": false,
            "inputs": [
                {
                    "indexed": true,
                    "internalType": "address",
                    "name": "gauge",
                    "type": "address"
                },
                {
                    "indexed": false,
                    "internalType": "address",
                    "name": "creator",
                    "type": "address"
                },
                {
                    "indexed": true,
                    "internalType": "address",
                    "name": "bribe",
                    "type": "address"
                },
                {
                    "indexed": true,
                    "internalType": "address",
                    "name": "pool",
                    "type": "address"
                }
            ],
            "name": "GaugeCreated",
            "type": "event"
        },
        {
            "anonymous": false,
            "inputs": [
                {
                    "indexed": true,
                    "internalType": "address",
                    "name": "sender",
                    "type": "address"
                },
                {
                    "indexed": true,
                    "internalType": "address",
                    "name": "reward",
                    "type": "address"
                },
                {
                    "indexed": false,
                    "internalType": "uint256",
                    "name": "amount",
                    "type": "uint256"
                }
            ],
            "name": "NotifyReward",
            "type": "event"
        },
        {
            "anonymous": false,
            "inputs": [
                {
                    "indexed": true,
                    "internalType": "address",
                    "name": "voter",
                    "type": "address"
                },
                {
                    "indexed": false,
                    "internalType": "uint256",
                    "name": "tokenId",
                    "type": "uint256"
                },
                {
                    "indexed": false,
                    "internalType": "int256",
                    "name": "weight",
                    "type": "int256"
                }
            ],
            "name": "Voted",
            "type": "event"
        },
        {
            "anonymous": false,
            "inputs": [
                {
                    "indexed": true,
                    "internalType": "address",
                    "name": "whitelister",
                    "type": "address"
                },
                {
                    "indexed": true,
                    "internalType": "address",
                    "name": "token",
                    "type": "address"
                }
            ],
            "name": "Whitelisted",
            "type": "event"
        },
        {
            "anonymous": false,
            "inputs": [
                {
                    "indexed": true,
                    "internalType": "address",
                    "name": "lp",
                    "type": "address"
                },
                {
                    "indexed": true,
                    "internalType": "address",
                    "name": "gauge",
                    "type": "address"
                },
                {
                    "indexed": false,
                    "internalType": "uint256",
                    "name": "tokenId",
                    "type": "uint256"
                },
                {
                    "indexed": false,
                    "internalType": "uint256",
                    "name": "amount",
                    "type": "uint256"
                }
            ],
            "name": "Withdraw",
            "type": "event"
        },
        {
            "inputs": [],
            "name": "_ve",
            "outputs": [
                {
                    "internalType": "address",
                    "name": "",
                    "type": "address"
                }
            ],
            "stateMutability": "view",
            "type": "function"
        },
        {
            "inputs": [
                {
                    "internalType": "uint256",
                    "name": "tokenId",
                    "type": "uint256"
                },
                {
                    "internalType": "address",
                    "name": "account",
                    "type": "address"
                }
            ],
            "name": "attachTokenToGauge",
            "outputs": [],
            "stateMutability": "nonpayable",
            "type": "function"
        },
        {
            "inputs": [],
            "name": "bribefactory",
            "outputs": [
                {
                    "internalType": "address",
                    "name": "",
                    "type": "address"
                }
            ],
            "stateMutability": "view",
            "type": "function"
        },
        {
            "inputs": [
                {
                    "internalType": "address",
                    "name": "",
                    "type": "address"
                }
            ],
            "name": "bribes",
            "outputs": [
                {
                    "internalType": "address",
                    "name": "",
                    "type": "address"
                }
            ],
            "stateMutability": "view",
            "type": "function"
        },
        {
            "inputs": [
                {
                    "internalType": "address[]",
                    "name": "_bribes",
                    "type": "address[]"
                },
                {
                    "internalType": "address[][]",
                    "name": "_tokens",
                    "type": "address[][]"
                },
                {
                    "internalType": "uint256",
                    "name": "_tokenId",
                    "type": "uint256"
                }
            ],
            "name": "claimBribes",
            "outputs": [],
            "stateMutability": "nonpayable",
            "type": "function"
        },
        {
            "inputs": [
                {
                    "internalType": "address[]",
                    "name": "_fees",
                    "type": "address[]"
                },
                {
                    "internalType": "address[][]",
                    "name": "_tokens",
                    "type": "address[][]"
                },
                {
                    "internalType": "uint256",
                    "name": "_tokenId",
                    "type": "uint256"
                }
            ],
            "name": "claimFees",
            "outputs": [],
            "stateMutability": "nonpayable",
            "type": "function"
        },
        {
            "inputs": [
                {
                    "internalType": "address[]",
                    "name": "_gauges",
                    "type": "address[]"
                },
                {
                    "internalType": "address[][]",
                    "name": "_tokens",
                    "type": "address[][]"
                }
            ],
            "name": "claimRewards",
            "outputs": [],
            "stateMutability": "nonpayable",
            "type": "function"
        },
        {
            "inputs": [
                {
                    "internalType": "address",
                    "name": "",
                    "type": "address"
                }
            ],
            "name": "claimable",
            "outputs": [
                {
                    "internalType": "uint256",
                    "name": "",
                    "type": "uint256"
                }
            ],
            "stateMutability": "view",
            "type": "function"
        },
        {
            "inputs": [
                {
                    "internalType": "address",
                    "name": "_pool",
                    "type": "address"
                }
            ],
            "name": "createGauge",
            "outputs": [
                {
                    "internalType": "address",
                    "name": "",
                    "type": "address"
                }
            ],
            "stateMutability": "nonpayable",
            "type": "function"
        },
        {
            "inputs": [
                {
                    "internalType": "uint256",
                    "name": "tokenId",
                    "type": "uint256"
                },
                {
                    "internalType": "address",
                    "name": "account",
                    "type": "address"
                }
            ],
            "name": "detachTokenFromGauge",
            "outputs": [],
            "stateMutability": "nonpayable",
            "type": "function"
        },
        {
            "inputs": [
                {
                    "internalType": "address[]",
                    "name": "_gauges",
                    "type": "address[]"
                }
            ],
            "name": "distribute",
            "outputs": [],
            "stateMutability": "nonpayable",
            "type": "function"
        },
        {
            "inputs": [
                {
                    "internalType": "address",
                    "name": "_gauge",
                    "type": "address"
                }
            ],
            "name": "distribute",
            "outputs": [],
            "stateMutability": "nonpayable",
            "type": "function"
        },
        {
            "inputs": [
                {
                    "internalType": "uint256",
                    "name": "start",
                    "type": "uint256"
                },
                {
                    "internalType": "uint256",
                    "name": "finish",
                    "type": "uint256"
                }
            ],
            "name": "distribute",
            "outputs": [],
            "stateMutability": "nonpayable",
            "type": "function"
        },
        {
            "inputs": [],
            "name": "distribute",
            "outputs": [],
            "stateMutability": "nonpayable",
            "type": "function"
        },
        {
            "inputs": [
                {
                    "internalType": "address[]",
                    "name": "_gauges",
                    "type": "address[]"
                }
            ],
            "name": "distributeFees",
            "outputs": [],
            "stateMutability": "nonpayable",
            "type": "function"
        },
        {
            "inputs": [],
            "name": "distro",
            "outputs": [],
            "stateMutability": "nonpayable",
            "type": "function"
        },
        {
            "inputs": [
                {
                    "internalType": "uint256",
                    "name": "tokenId",
                    "type": "uint256"
                },
                {
                    "internalType": "address",
                    "name": "account",
                    "type": "address"
                },
                {
                    "internalType": "uint256",
                    "name": "amount",
                    "type": "uint256"
                }
            ],
            "name": "emitDeposit",
            "outputs": [],
            "stateMutability": "nonpayable",
            "type": "function"
        },
        {
            "inputs": [
                {
                    "internalType": "uint256",
                    "name": "tokenId",
                    "type": "uint256"
                },
                {
                    "internalType": "address",
                    "name": "account",
                    "type": "address"
                },
                {
                    "internalType": "uint256",
                    "name": "amount",
                    "type": "uint256"
                }
            ],
            "name": "emitWithdraw",
            "outputs": [],
            "stateMutability": "nonpayable",
            "type": "function"
        },
        {
            "inputs": [],
            "name": "factory",
            "outputs": [
                {
                    "internalType": "address",
                    "name": "",
                    "type": "address"
                }
            ],
            "stateMutability": "view",
            "type": "function"
        },
        {
            "inputs": [],
            "name": "gaugefactory",
            "outputs": [
                {
                    "internalType": "address",
                    "name": "",
                    "type": "address"
                }
            ],
            "stateMutability": "view",
            "type": "function"
        },
        {
            "inputs": [
                {
                    "internalType": "address",
                    "name": "",
                    "type": "address"
                }
            ],
            "name": "gauges",
            "outputs": [
                {
                    "internalType": "address",
                    "name": "",
                    "type": "address"
                }
            ],
            "stateMutability": "view",
            "type": "function"
        },
        {
            "inputs": [
                {
                    "internalType": "address[]",
                    "name": "_tokens",
                    "type": "address[]"
                },
                {
                    "internalType": "address",
                    "name": "_minter",
                    "type": "address"
                }
            ],
            "name": "initialize",
            "outputs": [],
            "stateMutability": "nonpayable",
            "type": "function"
        },
        {
            "inputs": [
                {
                    "internalType": "address",
                    "name": "",
                    "type": "address"
                }
            ],
            "name": "isGauge",
            "outputs": [
                {
                    "internalType": "bool",
                    "name": "",
                    "type": "bool"
                }
            ],
            "stateMutability": "view",
            "type": "function"
        },
        {
            "inputs": [
                {
                    "internalType": "address",
                    "name": "",
                    "type": "address"
                }
            ],
            "name": "isWhitelisted",
            "outputs": [
                {
                    "internalType": "bool",
                    "name": "",
                    "type": "bool"
                }
            ],
            "stateMutability": "view",
            "type": "function"
        },
        {
            "inputs": [],
            "name": "length",
            "outputs": [
                {
                    "internalType": "uint256",
                    "name": "",
                    "type": "uint256"
                }
            ],
            "stateMutability": "view",
            "type": "function"
        },
        {
            "inputs": [],
            "name": "listing_fee",
            "outputs": [
                {
                    "internalType": "uint256",
                    "name": "",
                    "type": "uint256"
                }
            ],
            "stateMutability": "view",
            "type": "function"
        },
        {
            "inputs": [],
            "name": "minter",
            "outputs": [
                {
                    "internalType": "address",
                    "name": "",
                    "type": "address"
                }
            ],
            "stateMutability": "view",
            "type": "function"
        },
        {
            "inputs": [
                {
                    "internalType": "uint256",
                    "name": "amount",
                    "type": "uint256"
                }
            ],
            "name": "notifyRewardAmount",
            "outputs": [],
            "stateMutability": "nonpayable",
            "type": "function"
        },
        {
            "inputs": [
                {
                    "internalType": "uint256",
                    "name": "_tokenId",
                    "type": "uint256"
                }
            ],
            "name": "poke",
            "outputs": [],
            "stateMutability": "nonpayable",
            "type": "function"
        },
        {
            "inputs": [
                {
                    "internalType": "address",
                    "name": "",
                    "type": "address"
                }
            ],
            "name": "poolForGauge",
            "outputs": [
                {
                    "internalType": "address",
                    "name": "",
                    "type": "address"
                }
            ],
            "stateMutability": "view",
            "type": "function"
        },
        {
            "inputs": [
                {
                    "internalType": "uint256",
                    "name": "",
                    "type": "uint256"
                },
                {
                    "internalType": "uint256",
                    "name": "",
                    "type": "uint256"
                }
            ],
            "name": "poolVote",
            "outputs": [
                {
                    "internalType": "address",
                    "name": "",
                    "type": "address"
                }
            ],
            "stateMutability": "view",
            "type": "function"
        },
        {
            "inputs": [
                {
                    "internalType": "uint256",
                    "name": "",
                    "type": "uint256"
                }
            ],
            "name": "pools",
            "outputs": [
                {
                    "internalType": "address",
                    "name": "",
                    "type": "address"
                }
            ],
            "stateMutability": "view",
            "type": "function"
        },
        {
            "inputs": [
                {
                    "internalType": "uint256",
                    "name": "_tokenId",
                    "type": "uint256"
                }
            ],
            "name": "reset",
            "outputs": [],
            "stateMutability": "nonpayable",
            "type": "function"
        },
        {
            "inputs": [],
            "name": "totalWeight",
            "outputs": [
                {
                    "internalType": "uint256",
                    "name": "",
                    "type": "uint256"
                }
            ],
            "stateMutability": "view",
            "type": "function"
        },
        {
            "inputs": [],
            "name": "updateAll",
            "outputs": [],
            "stateMutability": "nonpayable",
            "type": "function"
        },
        {
            "inputs": [
                {
                    "internalType": "address[]",
                    "name": "_gauges",
                    "type": "address[]"
                }
            ],
            "name": "updateFor",
            "outputs": [],
            "stateMutability": "nonpayable",
            "type": "function"
        },
        {
            "inputs": [
                {
                    "internalType": "uint256",
                    "name": "start",
                    "type": "uint256"
                },
                {
                    "internalType": "uint256",
                    "name": "end",
                    "type": "uint256"
                }
            ],
            "name": "updateForRange",
            "outputs": [],
            "stateMutability": "nonpayable",
            "type": "function"
        },
        {
            "inputs": [
                {
                    "internalType": "address",
                    "name": "_gauge",
                    "type": "address"
                }
            ],
            "name": "updateGauge",
            "outputs": [],
            "stateMutability": "nonpayable",
            "type": "function"
        },
        {
            "inputs": [
                {
                    "internalType": "uint256",
                    "name": "",
                    "type": "uint256"
                }
            ],
            "name": "usedWeights",
            "outputs": [
                {
                    "internalType": "uint256",
                    "name": "",
                    "type": "uint256"
                }
            ],
            "stateMutability": "view",
            "type": "function"
        },
        {
            "inputs": [
                {
                    "internalType": "uint256",
                    "name": "tokenId",
                    "type": "uint256"
                },
                {
                    "internalType": "address[]",
                    "name": "_poolVote",
                    "type": "address[]"
                },
                {
                    "internalType": "int256[]",
                    "name": "_weights",
                    "type": "int256[]"
                }
            ],
            "name": "vote",
            "outputs": [],
            "stateMutability": "nonpayable",
            "type": "function"
        },
        {
            "inputs": [
                {
                    "internalType": "uint256",
                    "name": "",
                    "type": "uint256"
                },
                {
                    "internalType": "address",
                    "name": "",
                    "type": "address"
                }
            ],
            "name": "votes",
            "outputs": [
                {
                    "internalType": "int256",
                    "name": "",
                    "type": "int256"
                }
            ],
            "stateMutability": "view",
            "type": "function"
        },
        {
            "inputs": [
                {
                    "internalType": "address",
                    "name": "",
                    "type": "address"
                }
            ],
            "name": "weights",
            "outputs": [
                {
                    "internalType": "int256",
                    "name": "",
                    "type": "int256"
                }
            ],
            "stateMutability": "view",
            "type": "function"
        },
        {
            "inputs": [
                {
                    "internalType": "address",
                    "name": "_token",
                    "type": "address"
                },
                {
                    "internalType": "uint256",
                    "name": "_tokenId",
                    "type": "uint256"
                }
            ],
            "name": "whitelist",
            "outputs": [],
            "stateMutability": "nonpayable",
            "type": "function"
        }
    ],
    "bytecode": "6101206040526001600c553480156200001757600080fd5b5060405162003241380380620032418339810160408190526200003a9162000102565b6001600160a01b03808516608081905290841660a05260408051637e062a3560e11b8152905163fc0c546a916004808201926020929091908290030181865afa1580156200008c573d6000803e3d6000fd5b505050506040513d601f19601f82011682018060405250810190620000b291906200015f565b6001600160a01b0390811660c05291821660e05216610100525050600080546001600160a01b0319163317905562000184565b80516001600160a01b0381168114620000fd57600080fd5b919050565b600080600080608085870312156200011957600080fd5b6200012485620000e5565b93506200013460208601620000e5565b92506200014460408601620000e5565b91506200015460608601620000e5565b905092959194509250565b6000602082840312156200017257600080fd5b6200017d82620000e5565b9392505050565b60805160a05160c05160e05161010051612fde6200026360003960008181610319015261163d01526000818161041501526117140152600081816109a901528181610a2201528181610cf201528181610dae01528181611395015281816117ab0152611a780152600081816105e701526114b30152600081816104a801528181610752015281816107ed01528181610aaf01528181610e7e01528181610fe3015281816111130152818161125c0152818161130a015281816116e6015281816119f601528181611c6901528181611faa015261237e0152612fde6000f3fe608060405234801561001057600080fd5b50600436106102695760003560e01c80637715ee7511610151578063aa79979b116100c3578063c527ee1f11610087578063c527ee1f14610609578063d23254b41461061c578063d560b0d714610647578063e4fc6b6d146103c7578063ea94ee441461065a578063fecdad601461066d57600080fd5b8063aa79979b1461057b578063ac4afa381461059e578063b980777a146105b1578063b9a09fd5146105b9578063c45a0155146105e257600080fd5b80639b6a9d72116101155780639b6a9d72146104e6578063a5f4301e146104f9578063a61c713a1461050c578063a7cac8461461051f578063a86a366d1461053f578063a8c5d95a1461055257600080fd5b80637715ee751461047057806379e93824146104835780638dd598fb146104a357806396c82e57146104ca57806398fc55d8146104d357600080fd5b8063411b1f77116101ea57806363453ae1116101ae57806363453ae1146103ea578063666256aa146103fd57806368c3acb314610410578063698473e3146104375780636ecbe38a1461044a5780637625391a1461045d57600080fd5b8063411b1f77146103a1578063462d0b2e146103b457806347b3c6ba146103c757806353d78693146103cf5780636138889b146103d757600080fd5b806332145f901161023157806332145f901461030157806338752a9d146103145780633af32abf1461033b5780633c6b16ab1461036e578063402914f51461038157600080fd5b806306d6a1b21461026e57806307546172146102b45780631f7b6d32146102c757806320b1cb6f146102d9578063310bd74b146102ee575b600080fd5b61029761027c366004612785565b6004602052600090815260409020546001600160a01b031681565b6040516001600160a01b0390911681526020015b60405180910390f35b600054610297906001600160a01b031681565b6002545b6040519081526020016102ab565b6102ec6102e7366004612908565b610680565b005b6102ec6102fc36600461296c565b610736565b6102ec61030f36600461296c565b610854565b6102977f000000000000000000000000000000000000000000000000000000000000000081565b61035e610349366004612785565b600b6020526000908152604090205460ff1681565b60405190151581526020016102ab565b6102ec61037c36600461296c565b6109a4565b6102cb61038f366004612785565b600f6020526000908152604090205481565b6102ec6103af366004612985565b610a77565b6102ec6103c23660046129b5565b610b51565b6102ec610bcc565b6102ec610bdd565b6102ec6103e53660046129fc565b610bec565b6102ec6103f8366004612785565b610c30565b6102ec61040b366004612a39565b610e62565b6102977f000000000000000000000000000000000000000000000000000000000000000081565b6102ec610445366004612985565b610fab565b6102ec610458366004612785565b611085565b6102ec61046b366004612aa6565b611091565b6102ec61047e366004612a39565b6110f7565b6102cb61049136600461296c565b60096020526000908152604090205481565b6102977f000000000000000000000000000000000000000000000000000000000000000081565b6102cb60015481565b6102ec6104e1366004612ac8565b611240565b6102ec6104f4366004612aa6565b6113d6565b610297610507366004612785565b61143c565b6102ec61051a366004612af4565b611926565b6102cb61052d366004612785565b60066020526000908152604090205481565b61029761054d366004612aa6565b61198e565b610297610560366004612785565b6005602052600090815260409020546001600160a01b031681565b61035e610589366004612785565b600a6020526000908152604090205460ff1681565b6102976105ac36600461296c565b6119c6565b6102cb6119f0565b6102976105c7366004612785565b6003602052600090815260409020546001600160a01b031681565b6102977f000000000000000000000000000000000000000000000000000000000000000081565b6102ec6106173660046129fc565b611b11565b6102cb61062a366004612985565b600760209081526000928352604080842090915290825290205481565b6102ec6106553660046129fc565b611bae565b6102ec610668366004612af4565b611bee565b6102ec61067b366004612b78565b611c4d565b60005b82518110156107315782818151811061069e5761069e612bf2565b60200260200101516001600160a01b03166331279d3d338484815181106106c7576106c7612bf2565b60200260200101516040518363ffffffff1660e01b81526004016106ec929190612c4c565b600060405180830381600087803b15801561070657600080fd5b505af115801561071a573d6000803e3d6000fd5b50505050808061072990612c86565b915050610683565b505050565b60405163430c208160e01b8152336004820152602481018290527f00000000000000000000000000000000000000000000000000000000000000006001600160a01b03169063430c208190604401602060405180830381865afa1580156107a1573d6000803e3d6000fd5b505050506040513d601f19601f820116820180604052508101906107c59190612ca1565b6107ce57600080fd5b6107d781611d5f565b60405163c1f0fb9f60e01b8152600481018290527f00000000000000000000000000000000000000000000000000000000000000006001600160a01b03169063c1f0fb9f90602401600060405180830381600087803b15801561083957600080fd5b505af115801561084d573d6000803e3d6000fd5b5050505050565b6000818152600860209081526040808320805482518185028101850190935280835291929091908301828280156108b457602002820191906000526020600020905b81546001600160a01b03168152600190910190602001808311610896575b5050505050905060008151905060008167ffffffffffffffff8111156108dc576108dc6127a9565b604051908082528060200260200182016040528015610905578160200160208202803683370190505b50905060005b828110156109925760076000868152602001908152602001600020600085838151811061093a5761093a612bf2565b60200260200101516001600160a01b03166001600160a01b031681526020019081526020016000205482828151811061097557610975612bf2565b60209081029190910101528061098a81612c86565b91505061090b565b5061099e848483611f86565b50505050565b6109d07f000000000000000000000000000000000000000000000000000000000000000033308461244b565b6001546000906109e883670de0b6b3a7640000612cc3565b6109f29190612cf8565b90508015610a125780600d6000828254610a0c9190612d0c565b90915550505b6040518281526001600160a01b037f0000000000000000000000000000000000000000000000000000000000000000169033907ff70d5c697de7ea828df48e5c4573cb2194c659f1901f70110c52b066dcf50826906020015b60405180910390a35050565b336000908152600a602052604090205460ff16610a9357600080fd5b8115610b1457604051634c35bec560e11b8152600481018390527f00000000000000000000000000000000000000000000000000000000000000006001600160a01b03169063986b7d8a90602401600060405180830381600087803b158015610afb57600080fd5b505af1158015610b0f573d6000803e3d6000fd5b505050505b60405182815233906001600160a01b038316907fae268d9aab12f3605f58efd74fd3801fa812b03fdb44317eb70f46dff0e19e2290602001610a6b565b6000546001600160a01b03163314610b6857600080fd5b60005b8251811015610ba857610b96838281518110610b8957610b89612bf2565b6020026020010151612543565b80610ba081612c86565b915050610b6b565b50600080546001600160a01b0319166001600160a01b039290921691909117905550565b600254610bdb90600090611091565b565b600254610bdb906000906113d6565b60005b8151811015610c2c57610c1a828281518110610c0d57610c0d612bf2565b6020026020010151610c30565b80610c2481612c86565b915050610bef565b5050565b600c54600114610c3f57600080fd5b6002600c8190555060008054906101000a90046001600160a01b03166001600160a01b031663ed29fc116040518163ffffffff1660e01b81526004016020604051808303816000875af1158015610c9a573d6000803e3d6000fd5b505050506040513d601f19601f82011682018060405250810190610cbe9190612d24565b50610cc8816125b6565b6001600160a01b038181166000818152600f602052604090819020549051634cde602960e11b81527f00000000000000000000000000000000000000000000000000000000000000009093166004840152916399bcc05290602401602060405180830381865afa158015610d40573d6000803e3d6000fd5b505050506040513d601f19601f82011682018060405250810190610d649190612d24565b81118015610d7e57506000610d7c62093a8083612cf8565b115b15610e59576001600160a01b038281166000818152600f6020526040808220919091555163b66503cf60e01b81527f00000000000000000000000000000000000000000000000000000000000000009092166004830152602482018390529063b66503cf90604401600060405180830381600087803b158015610e0057600080fd5b505af1158015610e14573d6000803e3d6000fd5b50506040518381526001600160a01b03851692503391507f4fa9693cae526341d334e2862ca2413b2e503f1266255f9e0869fb36e6d89b179060200160405180910390a35b50506001600c55565b60405163430c208160e01b8152336004820152602481018290527f00000000000000000000000000000000000000000000000000000000000000006001600160a01b03169063430c208190604401602060405180830381865afa158015610ecd573d6000803e3d6000fd5b505050506040513d601f19601f82011682018060405250810190610ef19190612ca1565b610efa57600080fd5b60005b835181101561099e57838181518110610f1857610f18612bf2565b60200260200101516001600160a01b031663a7852afa83858481518110610f4157610f41612bf2565b60200260200101516040518363ffffffff1660e01b8152600401610f66929190612d3d565b600060405180830381600087803b158015610f8057600080fd5b505af1158015610f94573d6000803e3d6000fd5b505050508080610fa390612c86565b915050610efd565b336000908152600a602052604090205460ff16610fc757600080fd5b81156110485760405163fbd3a29d60e01b8152600481018390527f00000000000000000000000000000000000000000000000000000000000000006001600160a01b03169063fbd3a29d90602401600060405180830381600087803b15801561102f57600080fd5b505af1158015611043573d6000803e3d6000fd5b505050505b60405182815233906001600160a01b038316907f60940192810a6fb3bce3fd3e2e3a13fd6ccc7605e963fb87ee971aba829989bd90602001610a6b565b61108e816125b6565b50565b815b81811015610731576110e560036000600284815481106110b5576110b5612bf2565b60009182526020808320909101546001600160a01b03908116845290830193909352604090910190205416610c30565b806110ef81612c86565b915050611093565b60405163430c208160e01b8152336004820152602481018290527f00000000000000000000000000000000000000000000000000000000000000006001600160a01b03169063430c208190604401602060405180830381865afa158015611162573d6000803e3d6000fd5b505050506040513d601f19601f820116820180604052508101906111869190612ca1565b61118f57600080fd5b60005b835181101561099e578381815181106111ad576111ad612bf2565b60200260200101516001600160a01b031663a7852afa838584815181106111d6576111d6612bf2565b60200260200101516040518363ffffffff1660e01b81526004016111fb929190612d3d565b600060405180830381600087803b15801561121557600080fd5b505af1158015611229573d6000803e3d6000fd5b50505050808061123890612c86565b915050611192565b801561138c576040516331a9108f60e11b8152600481018290527f00000000000000000000000000000000000000000000000000000000000000006001600160a01b031690636352211e90602401602060405180830381865afa1580156112ab573d6000803e3d6000fd5b505050506040513d601f19601f820116820180604052508101906112cf9190612d56565b6001600160a01b0316336001600160a01b0316146112ec57600080fd5b6112f46119f0565b6040516339f890b560e21b8152600481018390527f00000000000000000000000000000000000000000000000000000000000000006001600160a01b03169063e7e242d490602401602060405180830381865afa158015611359573d6000803e3d6000fd5b505050506040513d601f19601f8201168201806040525081019061137d9190612d24565b1161138757600080fd5b6113cd565b6000546113cd907f00000000000000000000000000000000000000000000000000000000000000009033906001600160a01b03166113c86119f0565b61244b565b610c2c82612543565b815b818110156107315761142a60036000600284815481106113fa576113fa612bf2565b60009182526020808320909101546001600160a01b039081168452908301939093526040909101902054166125b6565b8061143481612c86565b9150506113d8565b6001600160a01b03818116600090815260036020526040812054909116156114945760405162461bcd60e51b815260206004820152600660248201526565786973747360d01b60448201526064015b60405180910390fd5b60405163e5e31b1360e01b81526001600160a01b0383811660048301527f0000000000000000000000000000000000000000000000000000000000000000169063e5e31b1390602401602060405180830381865afa1580156114fa573d6000803e3d6000fd5b505050506040513d601f19601f8201168201806040525081019061151e9190612ca1565b6115535760405162461bcd60e51b81526020600482015260066024820152650857dc1bdbdb60d21b604482015260640161148b565b600080836001600160a01b0316639d63848a6040518163ffffffff1660e01b815260040160408051808303816000875af1158015611595573d6000803e3d6000fd5b505050506040513d601f19601f820116820180604052508101906115b99190612d73565b6001600160a01b0382166000908152600b6020526040902054919350915060ff1680156115fe57506001600160a01b0381166000908152600b602052604090205460ff165b6116395760405162461bcd60e51b815260206004820152600c60248201526b085dda1a5d195b1a5cdd195960a21b604482015260640161148b565b60007f00000000000000000000000000000000000000000000000000000000000000006001600160a01b031663d27b9a786040518163ffffffff1660e01b81526004016020604051808303816000875af115801561169b573d6000803e3d6000fd5b505050506040513d601f19601f820116820180604052508101906116bf9190612d56565b604051630e24707d60e11b81526001600160a01b03878116600483015280831660248301527f0000000000000000000000000000000000000000000000000000000000000000811660448301529192506000917f00000000000000000000000000000000000000000000000000000000000000001690631c48e0fa906064016020604051808303816000875af115801561175d573d6000803e3d6000fd5b505050506040513d601f19601f820116820180604052508101906117819190612d56565b60405163095ea7b360e01b81526001600160a01b03808316600483015260001960248301529192507f00000000000000000000000000000000000000000000000000000000000000009091169063095ea7b3906044016020604051808303816000875af11580156117f6573d6000803e3d6000fd5b505050506040513d601f19601f8201168201806040525081019061181a9190612ca1565b506001600160a01b03808216600081815260056020908152604080832080548689166001600160a01b031991821617909155948b16808452600383528184208054871686179055938352600482528083208054909516909317909355600a9092529020805460ff19166001179055611891816125b6565b600280546001810182556000919091527f405787fa12a823e0f2b7631cc41b3ba8828b3321ca811111fa75cd3aa3bb5ace0180546001600160a01b0319166001600160a01b03888116918217909255604051338152909184811691908416907f48d3c521fd0d5541640f58c6d6381eed7cb2e8c9df421ae165a4f4c2d221ee0d9060200160405180910390a495945050505050565b336000908152600a602052604090205460ff1661194257600080fd5b604080518481526020810183905233916001600160a01b038516917fdcbc1c05240f31ff3ad067ef1ee35ce4997762752e3a095284754544f4c709d791015b60405180910390a3505050565b600860205281600052604060002081815481106119aa57600080fd5b6000918252602090912001546001600160a01b03169150829050565b600281815481106119d657600080fd5b6000918252602090912001546001600160a01b0316905081565b600060c87f00000000000000000000000000000000000000000000000000000000000000006001600160a01b03166318160ddd6040518163ffffffff1660e01b8152600401602060405180830381865afa158015611a52573d6000803e3d6000fd5b505050506040513d601f19601f82011682018060405250810190611a769190612d24565b7f00000000000000000000000000000000000000000000000000000000000000006001600160a01b03166318160ddd6040518163ffffffff1660e01b8152600401602060405180830381865afa158015611ad4573d6000803e3d6000fd5b505050506040513d601f19601f82011682018060405250810190611af89190612d24565b611b029190612da2565b611b0c9190612cf8565b905090565b60005b8151811015610c2c57818181518110611b2f57611b2f612bf2565b60200260200101516001600160a01b031663d294f0936040518163ffffffff1660e01b815260040160408051808303816000875af1158015611b75573d6000803e3d6000fd5b505050506040513d601f19601f82011682018060405250810190611b999190612db9565b50508080611ba690612c86565b915050611b14565b60005b8151811015610c2c57611bdc828281518110611bcf57611bcf612bf2565b60200260200101516125b6565b80611be681612c86565b915050611bb1565b336000908152600a602052604090205460ff16611c0a57600080fd5b604080518481526020810183905233916001600160a01b038516917ff341246adaac6f497bc2a656f546ab9e182111d630394f0c57c710a59a2cb5679101611981565b60405163430c208160e01b8152336004820152602481018690527f00000000000000000000000000000000000000000000000000000000000000006001600160a01b03169063430c208190604401602060405180830381865afa158015611cb8573d6000803e3d6000fd5b505050506040513d601f19601f82011682018060405250810190611cdc9190612ca1565b611ce557600080fd5b828114611cf157600080fd5b61084d8585858080602002602001604051908101604052809392919081815260200183836020028082843760009201919091525050604080516020808902828101820190935288825290935088925087918291850190849080828437600092019190915250611f8692505050565b600081815260086020526040812080549091805b82811015611f4a576000848281548110611d8f57611d8f612bf2565b60009182526020808320909101548883526007825260408084206001600160a01b03909216808552919092529120549091508015611f35576001600160a01b03808316600090815260036020526040902054611deb91166125b6565b6001600160a01b03821660009081526006602052604081208054839290611e13908490612ddd565b909155505060008781526007602090815260408083206001600160a01b038616845290915281208054839290611e4a908490612ddd565b90915550506000811315611eee576001600160a01b038281166000908152600360209081526040808320548416835260059091529081902054905163278afc8b60e21b815260048101849052602481018a9052911690639e2bf22c90604401600060405180830381600087803b158015611ec357600080fd5b505af1158015611ed7573d6000803e3d6000fd5b505050508084611ee79190612e1c565b9350611efb565b611ef88185612ddd565b93505b60408051888152602081018390527f6b3894ce60b9bbe9d93f1a4e6fc25b6b93cd8222e73ab6348d79c596f5b51de9910160405180910390a15b50508080611f4290612c86565b915050611d73565b508060016000828254611f5d9190612da2565b909155505060008481526009602090815260408083208390556008909152812061099e9161273e565b611f8f83611d5f565b81516040516339f890b560e21b8152600481018590526000907f00000000000000000000000000000000000000000000000000000000000000006001600160a01b03169063e7e242d490602401602060405180830381865afa158015611ff9573d6000803e3d6000fd5b505050506040513d601f19601f8201168201806040525081019061201d9190612d24565b90506000806000805b858110156120b057600087828151811061204257612042612bf2565b6020026020010151136120775786818151811061206157612061612bf2565b602002602001015161207290612e5d565b612092565b86818151811061208957612089612bf2565b60200260200101515b61209c9085612e1c565b9350806120a881612c86565b915050612026565b5060005b8581101561235e5760008882815181106120d0576120d0612bf2565b60200260200101519050600060036000836001600160a01b03166001600160a01b0316815260200190815260200160002060009054906101000a90046001600160a01b0316905061213e6040518060400160405280600681526020016568657265726560d01b815250612699565b6001600160a01b0381166000908152600a602052604090205460ff161561234957600086888b868151811061217557612175612bf2565b60200260200101516121879190612e7a565b6121919190612eff565b60008d81526007602090815260408083206001600160a01b0388168452909152902054909150156121c157600080fd5b806121cb57600080fd5b6121d4826125b6565b60008c815260086020908152604080832080546001810182559084528284200180546001600160a01b0319166001600160a01b0388169081179091558352600690915281208054839290612229908490612e1c565b909155505060008c81526007602090815260408083206001600160a01b038716845290915281208054839290612260908490612e1c565b909155505060008113156122e7576001600160a01b038083166000908152600560205260409081902054905163f320772360e01b815260048101849052602481018f905291169063f320772390604401600060405180830381600087803b1580156122ca57600080fd5b505af11580156122de573d6000803e3d6000fd5b505050506122f3565b6122f081612e5d565b90505b6122fd8186612e1c565b94506123098187612e1c565b604080518e81526020810184905291975033917f1263a2295e53acd6ef8f655b8afc11fa0f2cf11925be7aa1757d741ef32a926c910160405180910390a2505b5050808061235690612c86565b9150506120b4565b5060008113156123e35760405163fd4a77f160e01b8152600481018990527f00000000000000000000000000000000000000000000000000000000000000006001600160a01b03169063fd4a77f190602401600060405180830381600087803b1580156123ca57600080fd5b505af11580156123de573d6000803e3d6000fd5b505050505b81600160008282546123f59190612d0c565b909155505060408051808201909152600b81526a1d1bdd185b15d95a59da1d60aa1b602082015261242590612699565b6124306001546126dc565b60009788526009602052604090972096909655505050505050565b6000846001600160a01b03163b1161246257600080fd5b604080516001600160a01b0385811660248301528481166044830152606480830185905283518084039091018152608490920183526020820180516001600160e01b03166323b872dd60e01b17905291516000928392908816916124c69190612f59565b6000604051808303816000865af19150503d8060008114612503576040519150601f19603f3d011682016040523d82523d6000602084013e612508565b606091505b50915091508180156125325750805115806125325750808060200190518101906125329190612ca1565b61253b57600080fd5b505050505050565b6001600160a01b0381166000908152600b602052604090205460ff161561256957600080fd5b6001600160a01b0381166000818152600b6020526040808220805460ff191660011790555133917f6661a7108aecd07864384529117d96c319c1163e3010c01390f6b704726e07de91a350565b6001600160a01b0380821660009081526004602090815260408083205490931680835260069091529181205490811315612678576001600160a01b0383166000908152600e602052604081208054600d5491829055916126168383612da2565b9050801561253b576000670de0b6b3a76400006126338387612cc3565b61263d9190612cf8565b6001600160a01b0388166000908152600f602052604081208054929350839290919061266a908490612d0c565b909155505050505050505050565b600d546001600160a01b0384166000908152600e6020526040902055505050565b61108e816040516024016126ad9190612f75565b60408051601f198184030181529190526020810180516001600160e01b031663104c13eb60e21b17905261271d565b61108e816040516024016126f291815260200190565b60408051601f198184030181529190526020810180516001600160e01b031663f5b1bba960e01b1790525b80516a636f6e736f6c652e6c6f67602083016000808483855afa5050505050565b508054600082559060005260206000209081019061108e91905b8082111561276c5760008155600101612758565b5090565b6001600160a01b038116811461108e57600080fd5b60006020828403121561279757600080fd5b81356127a281612770565b9392505050565b634e487b7160e01b600052604160045260246000fd5b604051601f8201601f1916810167ffffffffffffffff811182821017156127e8576127e86127a9565b604052919050565b600067ffffffffffffffff82111561280a5761280a6127a9565b5060051b60200190565b600082601f83011261282557600080fd5b8135602061283a612835836127f0565b6127bf565b82815260059290921b8401810191818101908684111561285957600080fd5b8286015b8481101561287d57803561287081612770565b835291830191830161285d565b509695505050505050565b600082601f83011261289957600080fd5b813560206128a9612835836127f0565b82815260059290921b840181019181810190868411156128c857600080fd5b8286015b8481101561287d57803567ffffffffffffffff8111156128ec5760008081fd5b6128fa8986838b0101612814565b8452509183019183016128cc565b6000806040838503121561291b57600080fd5b823567ffffffffffffffff8082111561293357600080fd5b61293f86838701612814565b9350602085013591508082111561295557600080fd5b5061296285828601612888565b9150509250929050565b60006020828403121561297e57600080fd5b5035919050565b6000806040838503121561299857600080fd5b8235915060208301356129aa81612770565b809150509250929050565b600080604083850312156129c857600080fd5b823567ffffffffffffffff8111156129df57600080fd5b6129eb85828601612814565b92505060208301356129aa81612770565b600060208284031215612a0e57600080fd5b813567ffffffffffffffff811115612a2557600080fd5b612a3184828501612814565b949350505050565b600080600060608486031215612a4e57600080fd5b833567ffffffffffffffff80821115612a6657600080fd5b612a7287838801612814565b94506020860135915080821115612a8857600080fd5b50612a9586828701612888565b925050604084013590509250925092565b60008060408385031215612ab957600080fd5b50508035926020909101359150565b60008060408385031215612adb57600080fd5b8235612ae681612770565b946020939093013593505050565b600080600060608486031215612b0957600080fd5b833592506020840135612b1b81612770565b929592945050506040919091013590565b60008083601f840112612b3e57600080fd5b50813567ffffffffffffffff811115612b5657600080fd5b6020830191508360208260051b8501011115612b7157600080fd5b9250929050565b600080600080600060608688031215612b9057600080fd5b85359450602086013567ffffffffffffffff80821115612baf57600080fd5b612bbb89838a01612b2c565b90965094506040880135915080821115612bd457600080fd5b50612be188828901612b2c565b969995985093965092949392505050565b634e487b7160e01b600052603260045260246000fd5b600081518084526020808501945080840160005b83811015612c415781516001600160a01b031687529582019590820190600101612c1c565b509495945050505050565b6001600160a01b0383168152604060208201819052600090612a3190830184612c08565b634e487b7160e01b600052601160045260246000fd5b6000600019821415612c9a57612c9a612c70565b5060010190565b600060208284031215612cb357600080fd5b815180151581146127a257600080fd5b6000816000190483118215151615612cdd57612cdd612c70565b500290565b634e487b7160e01b600052601260045260246000fd5b600082612d0757612d07612ce2565b500490565b60008219821115612d1f57612d1f612c70565b500190565b600060208284031215612d3657600080fd5b5051919050565b828152604060208201526000612a316040830184612c08565b600060208284031215612d6857600080fd5b81516127a281612770565b60008060408385031215612d8657600080fd5b8251612d9181612770565b60208401519092506129aa81612770565b600082821015612db457612db4612c70565b500390565b60008060408385031215612dcc57600080fd5b505080516020909101519092909150565b60008083128015600160ff1b850184121615612dfb57612dfb612c70565b6001600160ff1b0384018313811615612e1657612e16612c70565b50500390565b600080821280156001600160ff1b0384900385131615612e3e57612e3e612c70565b600160ff1b8390038412811615612e5757612e57612c70565b50500190565b6000600160ff1b821415612e7357612e73612c70565b5060000390565b60006001600160ff1b0381841382841380821686840486111615612ea057612ea0612c70565b600160ff1b6000871282811687830589121615612ebf57612ebf612c70565b60008712925087820587128484161615612edb57612edb612c70565b87850587128184161615612ef157612ef1612c70565b505050929093029392505050565b600082612f0e57612f0e612ce2565b600160ff1b821460001984141615612f2857612f28612c70565b500590565b60005b83811015612f48578181015183820152602001612f30565b8381111561099e5750506000910152565b60008251612f6b818460208701612f2d565b9190910192915050565b6020815260008251806020840152612f94816040850160208701612f2d565b601f01601f1916919091016040019291505056fea2646970667358221220fa2adb9d81d505c475d4cfe7648ac31382b7c845423298d049de6c7da13272a664736f6c634300080b0033",
    "sourcePath": "/Users/leyu/Code/solidly/contracts/BaseV1-voter.sol",
    "compiler": {
        "name": "solc",
        "version": "0.8.11+commit.d7f03943"
    },
    "functionHashes": {
        "_ve()": "8dd598fb",
        "attachTokenToGauge(uint256,address)": "698473e3",
        "bribefactory()": "38752a9d",
        "bribes(address)": "a8c5d95a",
        "claimBribes(address[],address[][],uint256)": "7715ee75",
        "claimFees(address[],address[][],uint256)": "666256aa",
        "claimRewards(address[],address[][])": "20b1cb6f",
        "claimable(address)": "402914f5",
        "createGauge(address)": "a5f4301e",
        "detachTokenFromGauge(uint256,address)": "411b1f77",
        "distribute()": "e4fc6b6d",
        "distribute(address)": "63453ae1",
        "distribute(address[])": "6138889b",
        "distribute(uint256,uint256)": "7625391a",
        "distributeFees(address[])": "c527ee1f",
        "distro()": "47b3c6ba",
        "emitDeposit(uint256,address,uint256)": "a61c713a",
        "emitWithdraw(uint256,address,uint256)": "ea94ee44",
        "factory()": "c45a0155",
        "gaugefactory()": "68c3acb3",
        "gauges(address)": "b9a09fd5",
        "initialize(address[],address)": "462d0b2e",
        "isGauge(address)": "aa79979b",
        "isWhitelisted(address)": "3af32abf",
        "length()": "1f7b6d32",
        "listing_fee()": "b980777a",
        "minter()": "07546172",
        "notifyRewardAmount(uint256)": "3c6b16ab",
        "poke(uint256)": "32145f90",
        "poolForGauge(address)": "06d6a1b2",
        "poolVote(uint256,uint256)": "a86a366d",
        "pools(uint256)": "ac4afa38",
        "reset(uint256)": "310bd74b",
        "totalWeight()": "96c82e57",
        "updateAll()": "53d78693",
        "updateFor(address[])": "d560b0d7",
        "updateForRange(uint256,uint256)": "9b6a9d72",
        "updateGauge(address)": "6ecbe38a",
        "usedWeights(uint256)": "79e93824",
        "vote(uint256,address[],int256[])": "fecdad60",
        "votes(uint256,address)": "d23254b4",
        "weights(address)": "a7cac846",
        "whitelist(address,uint256)": "98fc55d8"
    },
    "gasEstimates": {
        "creation": {
            "codeDepositCost": "2450800",
            "executionCost": "infinite",
            "totalCost": "infinite"
        },
        "external": {
            "_ve()": "infinite",
            "attachTokenToGauge(uint256,address)": "infinite",
            "bribefactory()": "infinite",
            "bribes(address)": "2696",
            "claimBribes(address[],address[][],uint256)": "infinite",
            "claimFees(address[],address[][],uint256)": "infinite",
            "claimRewards(address[],address[][])": "infinite",
            "claimable(address)": "2647",
            "createGauge(address)": "infinite",
            "detachTokenFromGauge(uint256,address)": "infinite",
            "distribute()": "infinite",
            "distribute(address)": "infinite",
            "distribute(address[])": "infinite",
            "distribute(uint256,uint256)": "infinite",
            "distributeFees(address[])": "infinite",
            "distro()": "infinite",
            "emitDeposit(uint256,address,uint256)": "4746",
            "emitWithdraw(uint256,address,uint256)": "4800",
            "factory()": "infinite",
            "gaugefactory()": "infinite",
            "gauges(address)": "2652",
            "initialize(address[],address)": "infinite",
            "isGauge(address)": "2570",
            "isWhitelisted(address)": "2615",
            "length()": "2372",
            "listing_fee()": "infinite",
            "minter()": "2395",
            "notifyRewardAmount(uint256)": "infinite",
            "poke(uint256)": "infinite",
            "poolForGauge(address)": "2588",
            "poolVote(uint256,uint256)": "4827",
            "pools(uint256)": "4670",
            "reset(uint256)": "infinite",
            "totalWeight()": "2407",
            "updateAll()": "infinite",
            "updateFor(address[])": "infinite",
            "updateForRange(uint256,uint256)": "infinite",
            "updateGauge(address)": "infinite",
            "usedWeights(uint256)": "2506",
            "vote(uint256,address[],int256[])": "infinite",
            "votes(uint256,address)": "2682",
            "weights(address)": "2624",
            "whitelist(address,uint256)": "infinite"
        },
        "internal": {
            "_reset(uint256)": "infinite",
            "_safeTransferFrom(address,address,address,uint256)": "infinite",
            "_updateFor(address)": "55490",
            "_vote(uint256,address[] memory,int256[] memory)": "infinite",
            "_whitelist(address)": "28061"
        }
    }
}